{
	"contracts/Coin.sol": {
		"Coin": {
			"abi": [
				{
					"inputs": [],
					"stateMutability": "nonpayable",
					"type": "constructor"
				},
				{
					"anonymous": false,
					"inputs": [
						{
							"indexed": false,
							"internalType": "address",
							"name": "from",
							"type": "address"
						},
						{
							"indexed": false,
							"internalType": "uint256",
							"name": "amount",
							"type": "uint256"
						}
					],
					"name": "Burned",
					"type": "event"
				},
				{
					"anonymous": false,
					"inputs": [
						{
							"indexed": false,
							"internalType": "address",
							"name": "from",
							"type": "address"
						},
						{
							"indexed": false,
							"internalType": "address",
							"name": "to",
							"type": "address"
						},
						{
							"indexed": false,
							"internalType": "uint256",
							"name": "amount",
							"type": "uint256"
						}
					],
					"name": "Sent",
					"type": "event"
				},
				{
					"inputs": [
						{
							"internalType": "address",
							"name": "",
							"type": "address"
						}
					],
					"name": "balances",
					"outputs": [
						{
							"internalType": "uint256",
							"name": "",
							"type": "uint256"
						}
					],
					"stateMutability": "view",
					"type": "function"
				},
				{
					"inputs": [
						{
							"internalType": "uint256",
							"name": "amount",
							"type": "uint256"
						}
					],
					"name": "burn",
					"outputs": [],
					"stateMutability": "nonpayable",
					"type": "function"
				},
				{
					"inputs": [
						{
							"internalType": "address",
							"name": "receiver",
							"type": "address"
						},
						{
							"internalType": "uint256",
							"name": "amount",
							"type": "uint256"
						}
					],
					"name": "mint",
					"outputs": [],
					"stateMutability": "nonpayable",
					"type": "function"
				},
				{
					"inputs": [],
					"name": "minter",
					"outputs": [
						{
							"internalType": "address",
							"name": "",
							"type": "address"
						}
					],
					"stateMutability": "view",
					"type": "function"
				},
				{
					"inputs": [
						{
							"internalType": "address",
							"name": "receiver",
							"type": "address"
						},
						{
							"internalType": "uint256",
							"name": "amount",
							"type": "uint256"
						}
					],
					"name": "transfer",
					"outputs": [],
					"stateMutability": "nonpayable",
					"type": "function"
				}
			],
			"devdoc": {
				"kind": "dev",
				"methods": {},
				"version": 1
			},
			"evm": {
				"assembly": "    /* \"contracts/Coin.sol\":57:1608  contract Coin {... */\n  mstore(0x40, 0x80)\n    /* \"contracts/Coin.sol\":511:616  constructor() {... */\n  callvalue\n  dup1\n  iszero\n  tag_1\n  jumpi\n  0x00\n  dup1\n  revert\ntag_1:\n  pop\n    /* \"contracts/Coin.sol\":544:554  msg.sender */\n  caller\n    /* \"contracts/Coin.sol\":535:541  minter */\n  0x00\n  dup1\n    /* \"contracts/Coin.sol\":535:554  minter = msg.sender */\n  0x0100\n  exp\n  dup2\n  sload\n  dup2\n  0xffffffffffffffffffffffffffffffffffffffff\n  mul\n  not\n  and\n  swap1\n  dup4\n  0xffffffffffffffffffffffffffffffffffffffff\n  and\n  mul\n  or\n  swap1\n  sstore\n  pop\n    /* \"contracts/Coin.sol\":57:1608  contract Coin {... */\n  dataSize(sub_0)\n  dup1\n  dataOffset(sub_0)\n  0x00\n  codecopy\n  0x00\n  return\nstop\n\nsub_0: assembly {\n        /* \"contracts/Coin.sol\":57:1608  contract Coin {... */\n      mstore(0x40, 0x80)\n      callvalue\n      dup1\n      iszero\n      tag_1\n      jumpi\n      0x00\n      dup1\n      revert\n    tag_1:\n      pop\n      jumpi(tag_2, lt(calldatasize, 0x04))\n      shr(0xe0, calldataload(0x00))\n      dup1\n      0x07546172\n      eq\n      tag_3\n      jumpi\n      dup1\n      0x27e235e3\n      eq\n      tag_4\n      jumpi\n      dup1\n      0x40c10f19\n      eq\n      tag_5\n      jumpi\n      dup1\n      0x42966c68\n      eq\n      tag_6\n      jumpi\n      dup1\n      0xa9059cbb\n      eq\n      tag_7\n      jumpi\n    tag_2:\n      0x00\n      dup1\n      revert\n        /* \"contracts/Coin.sol\":145:166  address public minter */\n    tag_3:\n      tag_8\n      tag_9\n      jump\t// in\n    tag_8:\n      mload(0x40)\n      tag_10\n      swap2\n      swap1\n      tag_11\n      jump\t// in\n    tag_10:\n      mload(0x40)\n      dup1\n      swap2\n      sub\n      swap1\n      return\n        /* \"contracts/Coin.sol\":229:269  mapping(address => uint) public balances */\n    tag_4:\n      tag_12\n      0x04\n      dup1\n      calldatasize\n      sub\n      dup2\n      add\n      swap1\n      tag_13\n      swap2\n      swap1\n      tag_14\n      jump\t// in\n    tag_13:\n      tag_15\n      jump\t// in\n    tag_12:\n      mload(0x40)\n      tag_16\n      swap2\n      swap1\n      tag_17\n      jump\t// in\n    tag_16:\n      mload(0x40)\n      dup1\n      swap2\n      sub\n      swap1\n      return\n        /* \"contracts/Coin.sol\":689:856  function mint(address receiver, uint amount) public {... */\n    tag_5:\n      tag_18\n      0x04\n      dup1\n      calldatasize\n      sub\n      dup2\n      add\n      swap1\n      tag_19\n      swap2\n      swap1\n      tag_20\n      jump\t// in\n    tag_19:\n      tag_21\n      jump\t// in\n    tag_18:\n      stop\n        /* \"contracts/Coin.sol\":1288:1606  function burn(uint amount) public {... */\n    tag_6:\n      tag_22\n      0x04\n      dup1\n      calldatasize\n      sub\n      dup2\n      add\n      swap1\n      tag_23\n      swap2\n      swap1\n      tag_24\n      jump\t// in\n    tag_23:\n      tag_25\n      jump\t// in\n    tag_22:\n      stop\n        /* \"contracts/Coin.sol\":915:1212  function transfer(address receiver, uint amount) public {... */\n    tag_7:\n      tag_26\n      0x04\n      dup1\n      calldatasize\n      sub\n      dup2\n      add\n      swap1\n      tag_27\n      swap2\n      swap1\n      tag_20\n      jump\t// in\n    tag_27:\n      tag_28\n      jump\t// in\n    tag_26:\n      stop\n        /* \"contracts/Coin.sol\":145:166  address public minter */\n    tag_9:\n      0x00\n      dup1\n      sload\n      swap1\n      0x0100\n      exp\n      swap1\n      div\n      0xffffffffffffffffffffffffffffffffffffffff\n      and\n      dup2\n      jump\t// out\n        /* \"contracts/Coin.sol\":229:269  mapping(address => uint) public balances */\n    tag_15:\n      mstore(0x20, 0x01)\n      dup1\n      0x00\n      mstore\n      keccak256(0x00, 0x40)\n      0x00\n      swap2\n      pop\n      swap1\n      pop\n      sload\n      dup2\n      jump\t// out\n        /* \"contracts/Coin.sol\":689:856  function mint(address receiver, uint amount) public {... */\n    tag_21:\n        /* \"contracts/Coin.sol\":773:779  minter */\n      0x00\n      dup1\n      sload\n      swap1\n      0x0100\n      exp\n      swap1\n      div\n      0xffffffffffffffffffffffffffffffffffffffff\n      and\n        /* \"contracts/Coin.sol\":759:779  msg.sender == minter */\n      0xffffffffffffffffffffffffffffffffffffffff\n      and\n        /* \"contracts/Coin.sol\":759:769  msg.sender */\n      caller\n        /* \"contracts/Coin.sol\":759:779  msg.sender == minter */\n      0xffffffffffffffffffffffffffffffffffffffff\n      and\n      eq\n        /* \"contracts/Coin.sol\":751:811  require(msg.sender == minter, \"Only minter can mint tokens\") */\n      tag_30\n      jumpi\n      mload(0x40)\n      0x08c379a000000000000000000000000000000000000000000000000000000000\n      dup2\n      mstore\n      0x04\n      add\n      tag_31\n      swap1\n      tag_32\n      jump\t// in\n    tag_31:\n      mload(0x40)\n      dup1\n      swap2\n      sub\n      swap1\n      revert\n    tag_30:\n        /* \"contracts/Coin.sol\":843:849  amount */\n      dup1\n        /* \"contracts/Coin.sol\":821:829  balances */\n      0x01\n        /* \"contracts/Coin.sol\":821:839  balances[receiver] */\n      0x00\n        /* \"contracts/Coin.sol\":830:838  receiver */\n      dup5\n        /* \"contracts/Coin.sol\":821:839  balances[receiver] */\n      0xffffffffffffffffffffffffffffffffffffffff\n      and\n      0xffffffffffffffffffffffffffffffffffffffff\n      and\n      dup2\n      mstore\n      0x20\n      add\n      swap1\n      dup2\n      mstore\n      0x20\n      add\n      0x00\n      keccak256\n      0x00\n        /* \"contracts/Coin.sol\":821:849  balances[receiver] += amount */\n      dup3\n      dup3\n      sload\n      tag_33\n      swap2\n      swap1\n      tag_34\n      jump\t// in\n    tag_33:\n      swap3\n      pop\n      pop\n      dup2\n      swap1\n      sstore\n      pop\n        /* \"contracts/Coin.sol\":689:856  function mint(address receiver, uint amount) public {... */\n      pop\n      pop\n      jump\t// out\n        /* \"contracts/Coin.sol\":1288:1606  function burn(uint amount) public {... */\n    tag_25:\n        /* \"contracts/Coin.sol\":1349:1350  0 */\n      0x00\n        /* \"contracts/Coin.sol\":1340:1346  amount */\n      dup2\n        /* \"contracts/Coin.sol\":1340:1350  amount > 0 */\n      gt\n        /* \"contracts/Coin.sol\":1332:1395  require(amount > 0, \"Amount to burn must be greater than zero\") */\n      tag_36\n      jumpi\n      mload(0x40)\n      0x08c379a000000000000000000000000000000000000000000000000000000000\n      dup2\n      mstore\n      0x04\n      add\n      tag_37\n      swap1\n      tag_38\n      jump\t// in\n    tag_37:\n      mload(0x40)\n      dup1\n      swap2\n      sub\n      swap1\n      revert\n    tag_36:\n        /* \"contracts/Coin.sol\":1437:1443  amount */\n      dup1\n        /* \"contracts/Coin.sol\":1413:1421  balances */\n      0x01\n        /* \"contracts/Coin.sol\":1413:1433  balances[msg.sender] */\n      0x00\n        /* \"contracts/Coin.sol\":1422:1432  msg.sender */\n      caller\n        /* \"contracts/Coin.sol\":1413:1433  balances[msg.sender] */\n      0xffffffffffffffffffffffffffffffffffffffff\n      and\n      0xffffffffffffffffffffffffffffffffffffffff\n      and\n      dup2\n      mstore\n      0x20\n      add\n      swap1\n      dup2\n      mstore\n      0x20\n      add\n      0x00\n      keccak256\n      sload\n        /* \"contracts/Coin.sol\":1413:1443  balances[msg.sender] >= amount */\n      lt\n      iszero\n        /* \"contracts/Coin.sol\":1405:1483  require(balances[msg.sender] >= amount, \"Insufficient balance to burn tokens\") */\n      tag_39\n      jumpi\n      mload(0x40)\n      0x08c379a000000000000000000000000000000000000000000000000000000000\n      dup2\n      mstore\n      0x04\n      add\n      tag_40\n      swap1\n      tag_41\n      jump\t// in\n    tag_40:\n      mload(0x40)\n      dup1\n      swap2\n      sub\n      swap1\n      revert\n    tag_39:\n        /* \"contracts/Coin.sol\":1526:1532  amount */\n      dup1\n        /* \"contracts/Coin.sol\":1502:1510  balances */\n      0x01\n        /* \"contracts/Coin.sol\":1502:1522  balances[msg.sender] */\n      0x00\n        /* \"contracts/Coin.sol\":1511:1521  msg.sender */\n      caller\n        /* \"contracts/Coin.sol\":1502:1522  balances[msg.sender] */\n      0xffffffffffffffffffffffffffffffffffffffff\n      and\n      0xffffffffffffffffffffffffffffffffffffffff\n      and\n      dup2\n      mstore\n      0x20\n      add\n      swap1\n      dup2\n      mstore\n      0x20\n      add\n      0x00\n      keccak256\n      0x00\n        /* \"contracts/Coin.sol\":1502:1532  balances[msg.sender] -= amount */\n      dup3\n      dup3\n      sload\n      tag_42\n      swap2\n      swap1\n      tag_43\n      jump\t// in\n    tag_42:\n      swap3\n      pop\n      pop\n      dup2\n      swap1\n      sstore\n      pop\n        /* \"contracts/Coin.sol\":1547:1573  Burned(msg.sender, amount) */\n      0x696de425f79f4a40bc6d2122ca50507f0efbeabbff86a84871b7196ab8ea8df7\n        /* \"contracts/Coin.sol\":1554:1564  msg.sender */\n      caller\n        /* \"contracts/Coin.sol\":1566:1572  amount */\n      dup3\n        /* \"contracts/Coin.sol\":1547:1573  Burned(msg.sender, amount) */\n      mload(0x40)\n      tag_44\n      swap3\n      swap2\n      swap1\n      tag_45\n      jump\t// in\n    tag_44:\n      mload(0x40)\n      dup1\n      swap2\n      sub\n      swap1\n      log1\n        /* \"contracts/Coin.sol\":1288:1606  function burn(uint amount) public {... */\n      pop\n      jump\t// out\n        /* \"contracts/Coin.sol\":915:1212  function transfer(address receiver, uint amount) public {... */\n    tag_28:\n        /* \"contracts/Coin.sol\":1013:1019  amount */\n      dup1\n        /* \"contracts/Coin.sol\":989:997  balances */\n      0x01\n        /* \"contracts/Coin.sol\":989:1009  balances[msg.sender] */\n      0x00\n        /* \"contracts/Coin.sol\":998:1008  msg.sender */\n      caller\n        /* \"contracts/Coin.sol\":989:1009  balances[msg.sender] */\n      0xffffffffffffffffffffffffffffffffffffffff\n      and\n      0xffffffffffffffffffffffffffffffffffffffff\n      and\n      dup2\n      mstore\n      0x20\n      add\n      swap1\n      dup2\n      mstore\n      0x20\n      add\n      0x00\n      keccak256\n      sload\n        /* \"contracts/Coin.sol\":989:1019  balances[msg.sender] >= amount */\n      lt\n      iszero\n        /* \"contracts/Coin.sol\":981:1044  require(balances[msg.sender] >= amount, \"Insufficient balance\") */\n      tag_47\n      jumpi\n      mload(0x40)\n      0x08c379a000000000000000000000000000000000000000000000000000000000\n      dup2\n      mstore\n      0x04\n      add\n      tag_48\n      swap1\n      tag_49\n      jump\t// in\n    tag_48:\n      mload(0x40)\n      dup1\n      swap2\n      sub\n      swap1\n      revert\n    tag_47:\n        /* \"contracts/Coin.sol\":1078:1084  amount */\n      dup1\n        /* \"contracts/Coin.sol\":1054:1062  balances */\n      0x01\n        /* \"contracts/Coin.sol\":1054:1074  balances[msg.sender] */\n      0x00\n        /* \"contracts/Coin.sol\":1063:1073  msg.sender */\n      caller\n        /* \"contracts/Coin.sol\":1054:1074  balances[msg.sender] */\n      0xffffffffffffffffffffffffffffffffffffffff\n      and\n      0xffffffffffffffffffffffffffffffffffffffff\n      and\n      dup2\n      mstore\n      0x20\n      add\n      swap1\n      dup2\n      mstore\n      0x20\n      add\n      0x00\n      keccak256\n      0x00\n        /* \"contracts/Coin.sol\":1054:1084  balances[msg.sender] -= amount */\n      dup3\n      dup3\n      sload\n      tag_50\n      swap2\n      swap1\n      tag_43\n      jump\t// in\n    tag_50:\n      swap3\n      pop\n      pop\n      dup2\n      swap1\n      sstore\n      pop\n        /* \"contracts/Coin.sol\":1116:1122  amount */\n      dup1\n        /* \"contracts/Coin.sol\":1094:1102  balances */\n      0x01\n        /* \"contracts/Coin.sol\":1094:1112  balances[receiver] */\n      0x00\n        /* \"contracts/Coin.sol\":1103:1111  receiver */\n      dup5\n        /* \"contracts/Coin.sol\":1094:1112  balances[receiver] */\n      0xffffffffffffffffffffffffffffffffffffffff\n      and\n      0xffffffffffffffffffffffffffffffffffffffff\n      and\n      dup2\n      mstore\n      0x20\n      add\n      swap1\n      dup2\n      mstore\n      0x20\n      add\n      0x00\n      keccak256\n      0x00\n        /* \"contracts/Coin.sol\":1094:1122  balances[receiver] += amount */\n      dup3\n      dup3\n      sload\n      tag_51\n      swap2\n      swap1\n      tag_34\n      jump\t// in\n    tag_51:\n      swap3\n      pop\n      pop\n      dup2\n      swap1\n      sstore\n      pop\n        /* \"contracts/Coin.sol\":1137:1171  Sent(msg.sender, receiver, amount) */\n      0x3990db2d31862302a685e8086b5755072a6e2b5b780af1ee81ece35ee3cd3345\n        /* \"contracts/Coin.sol\":1142:1152  msg.sender */\n      caller\n        /* \"contracts/Coin.sol\":1154:1162  receiver */\n      dup4\n        /* \"contracts/Coin.sol\":1164:1170  amount */\n      dup4\n        /* \"contracts/Coin.sol\":1137:1171  Sent(msg.sender, receiver, amount) */\n      mload(0x40)\n      tag_52\n      swap4\n      swap3\n      swap2\n      swap1\n      tag_53\n      jump\t// in\n    tag_52:\n      mload(0x40)\n      dup1\n      swap2\n      sub\n      swap1\n      log1\n        /* \"contracts/Coin.sol\":915:1212  function transfer(address receiver, uint amount) public {... */\n      pop\n      pop\n      jump\t// out\n        /* \"#utility.yul\":7:133   */\n    tag_54:\n        /* \"#utility.yul\":44:51   */\n      0x00\n        /* \"#utility.yul\":84:126   */\n      0xffffffffffffffffffffffffffffffffffffffff\n        /* \"#utility.yul\":77:82   */\n      dup3\n        /* \"#utility.yul\":73:127   */\n      and\n        /* \"#utility.yul\":62:127   */\n      swap1\n      pop\n        /* \"#utility.yul\":7:133   */\n      swap2\n      swap1\n      pop\n      jump\t// out\n        /* \"#utility.yul\":139:235   */\n    tag_55:\n        /* \"#utility.yul\":176:183   */\n      0x00\n        /* \"#utility.yul\":205:229   */\n      tag_79\n        /* \"#utility.yul\":223:228   */\n      dup3\n        /* \"#utility.yul\":205:229   */\n      tag_54\n      jump\t// in\n    tag_79:\n        /* \"#utility.yul\":194:229   */\n      swap1\n      pop\n        /* \"#utility.yul\":139:235   */\n      swap2\n      swap1\n      pop\n      jump\t// out\n        /* \"#utility.yul\":241:359   */\n    tag_56:\n        /* \"#utility.yul\":328:352   */\n      tag_81\n        /* \"#utility.yul\":346:351   */\n      dup2\n        /* \"#utility.yul\":328:352   */\n      tag_55\n      jump\t// in\n    tag_81:\n        /* \"#utility.yul\":323:326   */\n      dup3\n        /* \"#utility.yul\":316:353   */\n      mstore\n        /* \"#utility.yul\":241:359   */\n      pop\n      pop\n      jump\t// out\n        /* \"#utility.yul\":365:587   */\n    tag_11:\n        /* \"#utility.yul\":458:462   */\n      0x00\n        /* \"#utility.yul\":496:498   */\n      0x20\n        /* \"#utility.yul\":485:494   */\n      dup3\n        /* \"#utility.yul\":481:499   */\n      add\n        /* \"#utility.yul\":473:499   */\n      swap1\n      pop\n        /* \"#utility.yul\":509:580   */\n      tag_83\n        /* \"#utility.yul\":577:578   */\n      0x00\n        /* \"#utility.yul\":566:575   */\n      dup4\n        /* \"#utility.yul\":562:579   */\n      add\n        /* \"#utility.yul\":553:559   */\n      dup5\n        /* \"#utility.yul\":509:580   */\n      tag_56\n      jump\t// in\n    tag_83:\n        /* \"#utility.yul\":365:587   */\n      swap3\n      swap2\n      pop\n      pop\n      jump\t// out\n        /* \"#utility.yul\":674:791   */\n    tag_58:\n        /* \"#utility.yul\":783:784   */\n      0x00\n        /* \"#utility.yul\":780:781   */\n      dup1\n        /* \"#utility.yul\":773:785   */\n      revert\n        /* \"#utility.yul\":920:1042   */\n    tag_60:\n        /* \"#utility.yul\":993:1017   */\n      tag_88\n        /* \"#utility.yul\":1011:1016   */\n      dup2\n        /* \"#utility.yul\":993:1017   */\n      tag_55\n      jump\t// in\n    tag_88:\n        /* \"#utility.yul\":986:991   */\n      dup2\n        /* \"#utility.yul\":983:1018   */\n      eq\n        /* \"#utility.yul\":973:1036   */\n      tag_89\n      jumpi\n        /* \"#utility.yul\":1032:1033   */\n      0x00\n        /* \"#utility.yul\":1029:1030   */\n      dup1\n        /* \"#utility.yul\":1022:1034   */\n      revert\n        /* \"#utility.yul\":973:1036   */\n    tag_89:\n        /* \"#utility.yul\":920:1042   */\n      pop\n      jump\t// out\n        /* \"#utility.yul\":1048:1187   */\n    tag_61:\n        /* \"#utility.yul\":1094:1099   */\n      0x00\n        /* \"#utility.yul\":1132:1138   */\n      dup2\n        /* \"#utility.yul\":1119:1139   */\n      calldataload\n        /* \"#utility.yul\":1110:1139   */\n      swap1\n      pop\n        /* \"#utility.yul\":1148:1181   */\n      tag_91\n        /* \"#utility.yul\":1175:1180   */\n      dup2\n        /* \"#utility.yul\":1148:1181   */\n      tag_60\n      jump\t// in\n    tag_91:\n        /* \"#utility.yul\":1048:1187   */\n      swap3\n      swap2\n      pop\n      pop\n      jump\t// out\n        /* \"#utility.yul\":1193:1522   */\n    tag_14:\n        /* \"#utility.yul\":1252:1258   */\n      0x00\n        /* \"#utility.yul\":1301:1303   */\n      0x20\n        /* \"#utility.yul\":1289:1298   */\n      dup3\n        /* \"#utility.yul\":1280:1287   */\n      dup5\n        /* \"#utility.yul\":1276:1299   */\n      sub\n        /* \"#utility.yul\":1272:1304   */\n      slt\n        /* \"#utility.yul\":1269:1388   */\n      iszero\n      tag_93\n      jumpi\n        /* \"#utility.yul\":1307:1386   */\n      tag_94\n      tag_58\n      jump\t// in\n    tag_94:\n        /* \"#utility.yul\":1269:1388   */\n    tag_93:\n        /* \"#utility.yul\":1427:1428   */\n      0x00\n        /* \"#utility.yul\":1452:1505   */\n      tag_95\n        /* \"#utility.yul\":1497:1504   */\n      dup5\n        /* \"#utility.yul\":1488:1494   */\n      dup3\n        /* \"#utility.yul\":1477:1486   */\n      dup6\n        /* \"#utility.yul\":1473:1495   */\n      add\n        /* \"#utility.yul\":1452:1505   */\n      tag_61\n      jump\t// in\n    tag_95:\n        /* \"#utility.yul\":1442:1505   */\n      swap2\n      pop\n        /* \"#utility.yul\":1398:1515   */\n      pop\n        /* \"#utility.yul\":1193:1522   */\n      swap3\n      swap2\n      pop\n      pop\n      jump\t// out\n        /* \"#utility.yul\":1528:1605   */\n    tag_62:\n        /* \"#utility.yul\":1565:1572   */\n      0x00\n        /* \"#utility.yul\":1594:1599   */\n      dup2\n        /* \"#utility.yul\":1583:1599   */\n      swap1\n      pop\n        /* \"#utility.yul\":1528:1605   */\n      swap2\n      swap1\n      pop\n      jump\t// out\n        /* \"#utility.yul\":1611:1729   */\n    tag_63:\n        /* \"#utility.yul\":1698:1722   */\n      tag_98\n        /* \"#utility.yul\":1716:1721   */\n      dup2\n        /* \"#utility.yul\":1698:1722   */\n      tag_62\n      jump\t// in\n    tag_98:\n        /* \"#utility.yul\":1693:1696   */\n      dup3\n        /* \"#utility.yul\":1686:1723   */\n      mstore\n        /* \"#utility.yul\":1611:1729   */\n      pop\n      pop\n      jump\t// out\n        /* \"#utility.yul\":1735:1957   */\n    tag_17:\n        /* \"#utility.yul\":1828:1832   */\n      0x00\n        /* \"#utility.yul\":1866:1868   */\n      0x20\n        /* \"#utility.yul\":1855:1864   */\n      dup3\n        /* \"#utility.yul\":1851:1869   */\n      add\n        /* \"#utility.yul\":1843:1869   */\n      swap1\n      pop\n        /* \"#utility.yul\":1879:1950   */\n      tag_100\n        /* \"#utility.yul\":1947:1948   */\n      0x00\n        /* \"#utility.yul\":1936:1945   */\n      dup4\n        /* \"#utility.yul\":1932:1949   */\n      add\n        /* \"#utility.yul\":1923:1929   */\n      dup5\n        /* \"#utility.yul\":1879:1950   */\n      tag_63\n      jump\t// in\n    tag_100:\n        /* \"#utility.yul\":1735:1957   */\n      swap3\n      swap2\n      pop\n      pop\n      jump\t// out\n        /* \"#utility.yul\":1963:2085   */\n    tag_64:\n        /* \"#utility.yul\":2036:2060   */\n      tag_102\n        /* \"#utility.yul\":2054:2059   */\n      dup2\n        /* \"#utility.yul\":2036:2060   */\n      tag_62\n      jump\t// in\n    tag_102:\n        /* \"#utility.yul\":2029:2034   */\n      dup2\n        /* \"#utility.yul\":2026:2061   */\n      eq\n        /* \"#utility.yul\":2016:2079   */\n      tag_103\n      jumpi\n        /* \"#utility.yul\":2075:2076   */\n      0x00\n        /* \"#utility.yul\":2072:2073   */\n      dup1\n        /* \"#utility.yul\":2065:2077   */\n      revert\n        /* \"#utility.yul\":2016:2079   */\n    tag_103:\n        /* \"#utility.yul\":1963:2085   */\n      pop\n      jump\t// out\n        /* \"#utility.yul\":2091:2230   */\n    tag_65:\n        /* \"#utility.yul\":2137:2142   */\n      0x00\n        /* \"#utility.yul\":2175:2181   */\n      dup2\n        /* \"#utility.yul\":2162:2182   */\n      calldataload\n        /* \"#utility.yul\":2153:2182   */\n      swap1\n      pop\n        /* \"#utility.yul\":2191:2224   */\n      tag_105\n        /* \"#utility.yul\":2218:2223   */\n      dup2\n        /* \"#utility.yul\":2191:2224   */\n      tag_64\n      jump\t// in\n    tag_105:\n        /* \"#utility.yul\":2091:2230   */\n      swap3\n      swap2\n      pop\n      pop\n      jump\t// out\n        /* \"#utility.yul\":2236:2710   */\n    tag_20:\n        /* \"#utility.yul\":2304:2310   */\n      0x00\n        /* \"#utility.yul\":2312:2318   */\n      dup1\n        /* \"#utility.yul\":2361:2363   */\n      0x40\n        /* \"#utility.yul\":2349:2358   */\n      dup4\n        /* \"#utility.yul\":2340:2347   */\n      dup6\n        /* \"#utility.yul\":2336:2359   */\n      sub\n        /* \"#utility.yul\":2332:2364   */\n      slt\n        /* \"#utility.yul\":2329:2448   */\n      iszero\n      tag_107\n      jumpi\n        /* \"#utility.yul\":2367:2446   */\n      tag_108\n      tag_58\n      jump\t// in\n    tag_108:\n        /* \"#utility.yul\":2329:2448   */\n    tag_107:\n        /* \"#utility.yul\":2487:2488   */\n      0x00\n        /* \"#utility.yul\":2512:2565   */\n      tag_109\n        /* \"#utility.yul\":2557:2564   */\n      dup6\n        /* \"#utility.yul\":2548:2554   */\n      dup3\n        /* \"#utility.yul\":2537:2546   */\n      dup7\n        /* \"#utility.yul\":2533:2555   */\n      add\n        /* \"#utility.yul\":2512:2565   */\n      tag_61\n      jump\t// in\n    tag_109:\n        /* \"#utility.yul\":2502:2565   */\n      swap3\n      pop\n        /* \"#utility.yul\":2458:2575   */\n      pop\n        /* \"#utility.yul\":2614:2616   */\n      0x20\n        /* \"#utility.yul\":2640:2693   */\n      tag_110\n        /* \"#utility.yul\":2685:2692   */\n      dup6\n        /* \"#utility.yul\":2676:2682   */\n      dup3\n        /* \"#utility.yul\":2665:2674   */\n      dup7\n        /* \"#utility.yul\":2661:2683   */\n      add\n        /* \"#utility.yul\":2640:2693   */\n      tag_65\n      jump\t// in\n    tag_110:\n        /* \"#utility.yul\":2630:2693   */\n      swap2\n      pop\n        /* \"#utility.yul\":2585:2703   */\n      pop\n        /* \"#utility.yul\":2236:2710   */\n      swap3\n      pop\n      swap3\n      swap1\n      pop\n      jump\t// out\n        /* \"#utility.yul\":2716:3045   */\n    tag_24:\n        /* \"#utility.yul\":2775:2781   */\n      0x00\n        /* \"#utility.yul\":2824:2826   */\n      0x20\n        /* \"#utility.yul\":2812:2821   */\n      dup3\n        /* \"#utility.yul\":2803:2810   */\n      dup5\n        /* \"#utility.yul\":2799:2822   */\n      sub\n        /* \"#utility.yul\":2795:2827   */\n      slt\n        /* \"#utility.yul\":2792:2911   */\n      iszero\n      tag_112\n      jumpi\n        /* \"#utility.yul\":2830:2909   */\n      tag_113\n      tag_58\n      jump\t// in\n    tag_113:\n        /* \"#utility.yul\":2792:2911   */\n    tag_112:\n        /* \"#utility.yul\":2950:2951   */\n      0x00\n        /* \"#utility.yul\":2975:3028   */\n      tag_114\n        /* \"#utility.yul\":3020:3027   */\n      dup5\n        /* \"#utility.yul\":3011:3017   */\n      dup3\n        /* \"#utility.yul\":3000:3009   */\n      dup6\n        /* \"#utility.yul\":2996:3018   */\n      add\n        /* \"#utility.yul\":2975:3028   */\n      tag_65\n      jump\t// in\n    tag_114:\n        /* \"#utility.yul\":2965:3028   */\n      swap2\n      pop\n        /* \"#utility.yul\":2921:3038   */\n      pop\n        /* \"#utility.yul\":2716:3045   */\n      swap3\n      swap2\n      pop\n      pop\n      jump\t// out\n        /* \"#utility.yul\":3051:3220   */\n    tag_66:\n        /* \"#utility.yul\":3135:3146   */\n      0x00\n        /* \"#utility.yul\":3169:3175   */\n      dup3\n        /* \"#utility.yul\":3164:3167   */\n      dup3\n        /* \"#utility.yul\":3157:3176   */\n      mstore\n        /* \"#utility.yul\":3209:3213   */\n      0x20\n        /* \"#utility.yul\":3204:3207   */\n      dup3\n        /* \"#utility.yul\":3200:3214   */\n      add\n        /* \"#utility.yul\":3185:3214   */\n      swap1\n      pop\n        /* \"#utility.yul\":3051:3220   */\n      swap3\n      swap2\n      pop\n      pop\n      jump\t// out\n        /* \"#utility.yul\":3226:3403   */\n    tag_67:\n        /* \"#utility.yul\":3366:3395   */\n      0x4f6e6c79206d696e7465722063616e206d696e7420746f6b656e730000000000\n        /* \"#utility.yul\":3362:3363   */\n      0x00\n        /* \"#utility.yul\":3354:3360   */\n      dup3\n        /* \"#utility.yul\":3350:3364   */\n      add\n        /* \"#utility.yul\":3343:3396   */\n      mstore\n        /* \"#utility.yul\":3226:3403   */\n      pop\n      jump\t// out\n        /* \"#utility.yul\":3409:3775   */\n    tag_68:\n        /* \"#utility.yul\":3551:3554   */\n      0x00\n        /* \"#utility.yul\":3572:3639   */\n      tag_118\n        /* \"#utility.yul\":3636:3638   */\n      0x1b\n        /* \"#utility.yul\":3631:3634   */\n      dup4\n        /* \"#utility.yul\":3572:3639   */\n      tag_66\n      jump\t// in\n    tag_118:\n        /* \"#utility.yul\":3565:3639   */\n      swap2\n      pop\n        /* \"#utility.yul\":3648:3741   */\n      tag_119\n        /* \"#utility.yul\":3737:3740   */\n      dup3\n        /* \"#utility.yul\":3648:3741   */\n      tag_67\n      jump\t// in\n    tag_119:\n        /* \"#utility.yul\":3766:3768   */\n      0x20\n        /* \"#utility.yul\":3761:3764   */\n      dup3\n        /* \"#utility.yul\":3757:3769   */\n      add\n        /* \"#utility.yul\":3750:3769   */\n      swap1\n      pop\n        /* \"#utility.yul\":3409:3775   */\n      swap2\n      swap1\n      pop\n      jump\t// out\n        /* \"#utility.yul\":3781:4200   */\n    tag_32:\n        /* \"#utility.yul\":3947:3951   */\n      0x00\n        /* \"#utility.yul\":3985:3987   */\n      0x20\n        /* \"#utility.yul\":3974:3983   */\n      dup3\n        /* \"#utility.yul\":3970:3988   */\n      add\n        /* \"#utility.yul\":3962:3988   */\n      swap1\n      pop\n        /* \"#utility.yul\":4034:4043   */\n      dup2\n        /* \"#utility.yul\":4028:4032   */\n      dup2\n        /* \"#utility.yul\":4024:4044   */\n      sub\n        /* \"#utility.yul\":4020:4021   */\n      0x00\n        /* \"#utility.yul\":4009:4018   */\n      dup4\n        /* \"#utility.yul\":4005:4022   */\n      add\n        /* \"#utility.yul\":3998:4045   */\n      mstore\n        /* \"#utility.yul\":4062:4193   */\n      tag_121\n        /* \"#utility.yul\":4188:4192   */\n      dup2\n        /* \"#utility.yul\":4062:4193   */\n      tag_68\n      jump\t// in\n    tag_121:\n        /* \"#utility.yul\":4054:4193   */\n      swap1\n      pop\n        /* \"#utility.yul\":3781:4200   */\n      swap2\n      swap1\n      pop\n      jump\t// out\n        /* \"#utility.yul\":4206:4386   */\n    tag_69:\n        /* \"#utility.yul\":4254:4331   */\n      0x4e487b7100000000000000000000000000000000000000000000000000000000\n        /* \"#utility.yul\":4251:4252   */\n      0x00\n        /* \"#utility.yul\":4244:4332   */\n      mstore\n        /* \"#utility.yul\":4351:4355   */\n      0x11\n        /* \"#utility.yul\":4348:4349   */\n      0x04\n        /* \"#utility.yul\":4341:4356   */\n      mstore\n        /* \"#utility.yul\":4375:4379   */\n      0x24\n        /* \"#utility.yul\":4372:4373   */\n      0x00\n        /* \"#utility.yul\":4365:4380   */\n      revert\n        /* \"#utility.yul\":4392:4583   */\n    tag_34:\n        /* \"#utility.yul\":4432:4435   */\n      0x00\n        /* \"#utility.yul\":4451:4471   */\n      tag_124\n        /* \"#utility.yul\":4469:4470   */\n      dup3\n        /* \"#utility.yul\":4451:4471   */\n      tag_62\n      jump\t// in\n    tag_124:\n        /* \"#utility.yul\":4446:4471   */\n      swap2\n      pop\n        /* \"#utility.yul\":4485:4505   */\n      tag_125\n        /* \"#utility.yul\":4503:4504   */\n      dup4\n        /* \"#utility.yul\":4485:4505   */\n      tag_62\n      jump\t// in\n    tag_125:\n        /* \"#utility.yul\":4480:4505   */\n      swap3\n      pop\n        /* \"#utility.yul\":4528:4529   */\n      dup3\n        /* \"#utility.yul\":4525:4526   */\n      dup3\n        /* \"#utility.yul\":4521:4530   */\n      add\n        /* \"#utility.yul\":4514:4530   */\n      swap1\n      pop\n        /* \"#utility.yul\":4549:4552   */\n      dup1\n        /* \"#utility.yul\":4546:4547   */\n      dup3\n        /* \"#utility.yul\":4543:4553   */\n      gt\n        /* \"#utility.yul\":4540:4576   */\n      iszero\n      tag_126\n      jumpi\n        /* \"#utility.yul\":4556:4574   */\n      tag_127\n      tag_69\n      jump\t// in\n    tag_127:\n        /* \"#utility.yul\":4540:4576   */\n    tag_126:\n        /* \"#utility.yul\":4392:4583   */\n      swap3\n      swap2\n      pop\n      pop\n      jump\t// out\n        /* \"#utility.yul\":4589:4816   */\n    tag_70:\n        /* \"#utility.yul\":4729:4763   */\n      0x416d6f756e7420746f206275726e206d75737420626520677265617465722074\n        /* \"#utility.yul\":4725:4726   */\n      0x00\n        /* \"#utility.yul\":4717:4723   */\n      dup3\n        /* \"#utility.yul\":4713:4727   */\n      add\n        /* \"#utility.yul\":4706:4764   */\n      mstore\n        /* \"#utility.yul\":4798:4808   */\n      0x68616e207a65726f000000000000000000000000000000000000000000000000\n        /* \"#utility.yul\":4793:4795   */\n      0x20\n        /* \"#utility.yul\":4785:4791   */\n      dup3\n        /* \"#utility.yul\":4781:4796   */\n      add\n        /* \"#utility.yul\":4774:4809   */\n      mstore\n        /* \"#utility.yul\":4589:4816   */\n      pop\n      jump\t// out\n        /* \"#utility.yul\":4822:5188   */\n    tag_71:\n        /* \"#utility.yul\":4964:4967   */\n      0x00\n        /* \"#utility.yul\":4985:5052   */\n      tag_130\n        /* \"#utility.yul\":5049:5051   */\n      0x28\n        /* \"#utility.yul\":5044:5047   */\n      dup4\n        /* \"#utility.yul\":4985:5052   */\n      tag_66\n      jump\t// in\n    tag_130:\n        /* \"#utility.yul\":4978:5052   */\n      swap2\n      pop\n        /* \"#utility.yul\":5061:5154   */\n      tag_131\n        /* \"#utility.yul\":5150:5153   */\n      dup3\n        /* \"#utility.yul\":5061:5154   */\n      tag_70\n      jump\t// in\n    tag_131:\n        /* \"#utility.yul\":5179:5181   */\n      0x40\n        /* \"#utility.yul\":5174:5177   */\n      dup3\n        /* \"#utility.yul\":5170:5182   */\n      add\n        /* \"#utility.yul\":5163:5182   */\n      swap1\n      pop\n        /* \"#utility.yul\":4822:5188   */\n      swap2\n      swap1\n      pop\n      jump\t// out\n        /* \"#utility.yul\":5194:5613   */\n    tag_38:\n        /* \"#utility.yul\":5360:5364   */\n      0x00\n        /* \"#utility.yul\":5398:5400   */\n      0x20\n        /* \"#utility.yul\":5387:5396   */\n      dup3\n        /* \"#utility.yul\":5383:5401   */\n      add\n        /* \"#utility.yul\":5375:5401   */\n      swap1\n      pop\n        /* \"#utility.yul\":5447:5456   */\n      dup2\n        /* \"#utility.yul\":5441:5445   */\n      dup2\n        /* \"#utility.yul\":5437:5457   */\n      sub\n        /* \"#utility.yul\":5433:5434   */\n      0x00\n        /* \"#utility.yul\":5422:5431   */\n      dup4\n        /* \"#utility.yul\":5418:5435   */\n      add\n        /* \"#utility.yul\":5411:5458   */\n      mstore\n        /* \"#utility.yul\":5475:5606   */\n      tag_133\n        /* \"#utility.yul\":5601:5605   */\n      dup2\n        /* \"#utility.yul\":5475:5606   */\n      tag_71\n      jump\t// in\n    tag_133:\n        /* \"#utility.yul\":5467:5606   */\n      swap1\n      pop\n        /* \"#utility.yul\":5194:5613   */\n      swap2\n      swap1\n      pop\n      jump\t// out\n        /* \"#utility.yul\":5619:5841   */\n    tag_72:\n        /* \"#utility.yul\":5759:5793   */\n      0x496e73756666696369656e742062616c616e636520746f206275726e20746f6b\n        /* \"#utility.yul\":5755:5756   */\n      0x00\n        /* \"#utility.yul\":5747:5753   */\n      dup3\n        /* \"#utility.yul\":5743:5757   */\n      add\n        /* \"#utility.yul\":5736:5794   */\n      mstore\n        /* \"#utility.yul\":5828:5833   */\n      0x656e730000000000000000000000000000000000000000000000000000000000\n        /* \"#utility.yul\":5823:5825   */\n      0x20\n        /* \"#utility.yul\":5815:5821   */\n      dup3\n        /* \"#utility.yul\":5811:5826   */\n      add\n        /* \"#utility.yul\":5804:5834   */\n      mstore\n        /* \"#utility.yul\":5619:5841   */\n      pop\n      jump\t// out\n        /* \"#utility.yul\":5847:6213   */\n    tag_73:\n        /* \"#utility.yul\":5989:5992   */\n      0x00\n        /* \"#utility.yul\":6010:6077   */\n      tag_136\n        /* \"#utility.yul\":6074:6076   */\n      0x23\n        /* \"#utility.yul\":6069:6072   */\n      dup4\n        /* \"#utility.yul\":6010:6077   */\n      tag_66\n      jump\t// in\n    tag_136:\n        /* \"#utility.yul\":6003:6077   */\n      swap2\n      pop\n        /* \"#utility.yul\":6086:6179   */\n      tag_137\n        /* \"#utility.yul\":6175:6178   */\n      dup3\n        /* \"#utility.yul\":6086:6179   */\n      tag_72\n      jump\t// in\n    tag_137:\n        /* \"#utility.yul\":6204:6206   */\n      0x40\n        /* \"#utility.yul\":6199:6202   */\n      dup3\n        /* \"#utility.yul\":6195:6207   */\n      add\n        /* \"#utility.yul\":6188:6207   */\n      swap1\n      pop\n        /* \"#utility.yul\":5847:6213   */\n      swap2\n      swap1\n      pop\n      jump\t// out\n        /* \"#utility.yul\":6219:6638   */\n    tag_41:\n        /* \"#utility.yul\":6385:6389   */\n      0x00\n        /* \"#utility.yul\":6423:6425   */\n      0x20\n        /* \"#utility.yul\":6412:6421   */\n      dup3\n        /* \"#utility.yul\":6408:6426   */\n      add\n        /* \"#utility.yul\":6400:6426   */\n      swap1\n      pop\n        /* \"#utility.yul\":6472:6481   */\n      dup2\n        /* \"#utility.yul\":6466:6470   */\n      dup2\n        /* \"#utility.yul\":6462:6482   */\n      sub\n        /* \"#utility.yul\":6458:6459   */\n      0x00\n        /* \"#utility.yul\":6447:6456   */\n      dup4\n        /* \"#utility.yul\":6443:6460   */\n      add\n        /* \"#utility.yul\":6436:6483   */\n      mstore\n        /* \"#utility.yul\":6500:6631   */\n      tag_139\n        /* \"#utility.yul\":6626:6630   */\n      dup2\n        /* \"#utility.yul\":6500:6631   */\n      tag_73\n      jump\t// in\n    tag_139:\n        /* \"#utility.yul\":6492:6631   */\n      swap1\n      pop\n        /* \"#utility.yul\":6219:6638   */\n      swap2\n      swap1\n      pop\n      jump\t// out\n        /* \"#utility.yul\":6644:6838   */\n    tag_43:\n        /* \"#utility.yul\":6684:6688   */\n      0x00\n        /* \"#utility.yul\":6704:6724   */\n      tag_141\n        /* \"#utility.yul\":6722:6723   */\n      dup3\n        /* \"#utility.yul\":6704:6724   */\n      tag_62\n      jump\t// in\n    tag_141:\n        /* \"#utility.yul\":6699:6724   */\n      swap2\n      pop\n        /* \"#utility.yul\":6738:6758   */\n      tag_142\n        /* \"#utility.yul\":6756:6757   */\n      dup4\n        /* \"#utility.yul\":6738:6758   */\n      tag_62\n      jump\t// in\n    tag_142:\n        /* \"#utility.yul\":6733:6758   */\n      swap3\n      pop\n        /* \"#utility.yul\":6782:6783   */\n      dup3\n        /* \"#utility.yul\":6779:6780   */\n      dup3\n        /* \"#utility.yul\":6775:6784   */\n      sub\n        /* \"#utility.yul\":6767:6784   */\n      swap1\n      pop\n        /* \"#utility.yul\":6806:6807   */\n      dup2\n        /* \"#utility.yul\":6800:6804   */\n      dup2\n        /* \"#utility.yul\":6797:6808   */\n      gt\n        /* \"#utility.yul\":6794:6831   */\n      iszero\n      tag_143\n      jumpi\n        /* \"#utility.yul\":6811:6829   */\n      tag_144\n      tag_69\n      jump\t// in\n    tag_144:\n        /* \"#utility.yul\":6794:6831   */\n    tag_143:\n        /* \"#utility.yul\":6644:6838   */\n      swap3\n      swap2\n      pop\n      pop\n      jump\t// out\n        /* \"#utility.yul\":6844:7176   */\n    tag_45:\n        /* \"#utility.yul\":6965:6969   */\n      0x00\n        /* \"#utility.yul\":7003:7005   */\n      0x40\n        /* \"#utility.yul\":6992:7001   */\n      dup3\n        /* \"#utility.yul\":6988:7006   */\n      add\n        /* \"#utility.yul\":6980:7006   */\n      swap1\n      pop\n        /* \"#utility.yul\":7016:7087   */\n      tag_146\n        /* \"#utility.yul\":7084:7085   */\n      0x00\n        /* \"#utility.yul\":7073:7082   */\n      dup4\n        /* \"#utility.yul\":7069:7086   */\n      add\n        /* \"#utility.yul\":7060:7066   */\n      dup6\n        /* \"#utility.yul\":7016:7087   */\n      tag_56\n      jump\t// in\n    tag_146:\n        /* \"#utility.yul\":7097:7169   */\n      tag_147\n        /* \"#utility.yul\":7165:7167   */\n      0x20\n        /* \"#utility.yul\":7154:7163   */\n      dup4\n        /* \"#utility.yul\":7150:7168   */\n      add\n        /* \"#utility.yul\":7141:7147   */\n      dup5\n        /* \"#utility.yul\":7097:7169   */\n      tag_63\n      jump\t// in\n    tag_147:\n        /* \"#utility.yul\":6844:7176   */\n      swap4\n      swap3\n      pop\n      pop\n      pop\n      jump\t// out\n        /* \"#utility.yul\":7182:7352   */\n    tag_74:\n        /* \"#utility.yul\":7322:7344   */\n      0x496e73756666696369656e742062616c616e6365000000000000000000000000\n        /* \"#utility.yul\":7318:7319   */\n      0x00\n        /* \"#utility.yul\":7310:7316   */\n      dup3\n        /* \"#utility.yul\":7306:7320   */\n      add\n        /* \"#utility.yul\":7299:7345   */\n      mstore\n        /* \"#utility.yul\":7182:7352   */\n      pop\n      jump\t// out\n        /* \"#utility.yul\":7358:7724   */\n    tag_75:\n        /* \"#utility.yul\":7500:7503   */\n      0x00\n        /* \"#utility.yul\":7521:7588   */\n      tag_150\n        /* \"#utility.yul\":7585:7587   */\n      0x14\n        /* \"#utility.yul\":7580:7583   */\n      dup4\n        /* \"#utility.yul\":7521:7588   */\n      tag_66\n      jump\t// in\n    tag_150:\n        /* \"#utility.yul\":7514:7588   */\n      swap2\n      pop\n        /* \"#utility.yul\":7597:7690   */\n      tag_151\n        /* \"#utility.yul\":7686:7689   */\n      dup3\n        /* \"#utility.yul\":7597:7690   */\n      tag_74\n      jump\t// in\n    tag_151:\n        /* \"#utility.yul\":7715:7717   */\n      0x20\n        /* \"#utility.yul\":7710:7713   */\n      dup3\n        /* \"#utility.yul\":7706:7718   */\n      add\n        /* \"#utility.yul\":7699:7718   */\n      swap1\n      pop\n        /* \"#utility.yul\":7358:7724   */\n      swap2\n      swap1\n      pop\n      jump\t// out\n        /* \"#utility.yul\":7730:8149   */\n    tag_49:\n        /* \"#utility.yul\":7896:7900   */\n      0x00\n        /* \"#utility.yul\":7934:7936   */\n      0x20\n        /* \"#utility.yul\":7923:7932   */\n      dup3\n        /* \"#utility.yul\":7919:7937   */\n      add\n        /* \"#utility.yul\":7911:7937   */\n      swap1\n      pop\n        /* \"#utility.yul\":7983:7992   */\n      dup2\n        /* \"#utility.yul\":7977:7981   */\n      dup2\n        /* \"#utility.yul\":7973:7993   */\n      sub\n        /* \"#utility.yul\":7969:7970   */\n      0x00\n        /* \"#utility.yul\":7958:7967   */\n      dup4\n        /* \"#utility.yul\":7954:7971   */\n      add\n        /* \"#utility.yul\":7947:7994   */\n      mstore\n        /* \"#utility.yul\":8011:8142   */\n      tag_153\n        /* \"#utility.yul\":8137:8141   */\n      dup2\n        /* \"#utility.yul\":8011:8142   */\n      tag_75\n      jump\t// in\n    tag_153:\n        /* \"#utility.yul\":8003:8142   */\n      swap1\n      pop\n        /* \"#utility.yul\":7730:8149   */\n      swap2\n      swap1\n      pop\n      jump\t// out\n        /* \"#utility.yul\":8155:8597   */\n    tag_53:\n        /* \"#utility.yul\":8304:8308   */\n      0x00\n        /* \"#utility.yul\":8342:8344   */\n      0x60\n        /* \"#utility.yul\":8331:8340   */\n      dup3\n        /* \"#utility.yul\":8327:8345   */\n      add\n        /* \"#utility.yul\":8319:8345   */\n      swap1\n      pop\n        /* \"#utility.yul\":8355:8426   */\n      tag_155\n        /* \"#utility.yul\":8423:8424   */\n      0x00\n        /* \"#utility.yul\":8412:8421   */\n      dup4\n        /* \"#utility.yul\":8408:8425   */\n      add\n        /* \"#utility.yul\":8399:8405   */\n      dup7\n        /* \"#utility.yul\":8355:8426   */\n      tag_56\n      jump\t// in\n    tag_155:\n        /* \"#utility.yul\":8436:8508   */\n      tag_156\n        /* \"#utility.yul\":8504:8506   */\n      0x20\n        /* \"#utility.yul\":8493:8502   */\n      dup4\n        /* \"#utility.yul\":8489:8507   */\n      add\n        /* \"#utility.yul\":8480:8486   */\n      dup6\n        /* \"#utility.yul\":8436:8508   */\n      tag_56\n      jump\t// in\n    tag_156:\n        /* \"#utility.yul\":8518:8590   */\n      tag_157\n        /* \"#utility.yul\":8586:8588   */\n      0x40\n        /* \"#utility.yul\":8575:8584   */\n      dup4\n        /* \"#utility.yul\":8571:8589   */\n      add\n        /* \"#utility.yul\":8562:8568   */\n      dup5\n        /* \"#utility.yul\":8518:8590   */\n      tag_63\n      jump\t// in\n    tag_157:\n        /* \"#utility.yul\":8155:8597   */\n      swap5\n      swap4\n      pop\n      pop\n      pop\n      pop\n      jump\t// out\n\n    auxdata: 0xa264697066735822122064572dfacce894ccc43afd234426fb1de5c841f4c9553a5ad2d298d79666f23264736f6c634300081a0033\n}\n",
				"bytecode": {
					"linkReferences": {},
					"object": "6080604052348015600e575f80fd5b50335f806101000a81548173ffffffffffffffffffffffffffffffffffffffff021916908373ffffffffffffffffffffffffffffffffffffffff1602179055506109638061005b5f395ff3fe608060405234801561000f575f80fd5b5060043610610055575f3560e01c8063075461721461005957806327e235e31461007757806340c10f19146100a757806342966c68146100c3578063a9059cbb146100df575b5f80fd5b6100616100fb565b60405161006e919061050c565b60405180910390f35b610091600480360381019061008c9190610553565b61011e565b60405161009e9190610596565b60405180910390f35b6100c160048036038101906100bc91906105d9565b610133565b005b6100dd60048036038101906100d89190610617565b610217565b005b6100f960048036038101906100f491906105d9565b610368565b005b5f8054906101000a900473ffffffffffffffffffffffffffffffffffffffff1681565b6001602052805f5260405f205f915090505481565b5f8054906101000a900473ffffffffffffffffffffffffffffffffffffffff1673ffffffffffffffffffffffffffffffffffffffff163373ffffffffffffffffffffffffffffffffffffffff16146101c0576040517f08c379a00000000000000000000000000000000000000000000000000000000081526004016101b79061069c565b60405180910390fd5b8060015f8473ffffffffffffffffffffffffffffffffffffffff1673ffffffffffffffffffffffffffffffffffffffff1681526020019081526020015f205f82825461020c91906106e7565b925050819055505050565b5f8111610259576040517f08c379a00000000000000000000000000000000000000000000000000000000081526004016102509061078a565b60405180910390fd5b8060015f3373ffffffffffffffffffffffffffffffffffffffff1673ffffffffffffffffffffffffffffffffffffffff1681526020019081526020015f205410156102d9576040517f08c379a00000000000000000000000000000000000000000000000000000000081526004016102d090610818565b60405180910390fd5b8060015f3373ffffffffffffffffffffffffffffffffffffffff1673ffffffffffffffffffffffffffffffffffffffff1681526020019081526020015f205f8282546103259190610836565b925050819055507f696de425f79f4a40bc6d2122ca50507f0efbeabbff86a84871b7196ab8ea8df7338260405161035d929190610869565b60405180910390a150565b8060015f3373ffffffffffffffffffffffffffffffffffffffff1673ffffffffffffffffffffffffffffffffffffffff1681526020019081526020015f205410156103e8576040517f08c379a00000000000000000000000000000000000000000000000000000000081526004016103df906108da565b60405180910390fd5b8060015f3373ffffffffffffffffffffffffffffffffffffffff1673ffffffffffffffffffffffffffffffffffffffff1681526020019081526020015f205f8282546104349190610836565b925050819055508060015f8473ffffffffffffffffffffffffffffffffffffffff1673ffffffffffffffffffffffffffffffffffffffff1681526020019081526020015f205f82825461048791906106e7565b925050819055507f3990db2d31862302a685e8086b5755072a6e2b5b780af1ee81ece35ee3cd33453383836040516104c1939291906108f8565b60405180910390a15050565b5f73ffffffffffffffffffffffffffffffffffffffff82169050919050565b5f6104f6826104cd565b9050919050565b610506816104ec565b82525050565b5f60208201905061051f5f8301846104fd565b92915050565b5f80fd5b610532816104ec565b811461053c575f80fd5b50565b5f8135905061054d81610529565b92915050565b5f6020828403121561056857610567610525565b5b5f6105758482850161053f565b91505092915050565b5f819050919050565b6105908161057e565b82525050565b5f6020820190506105a95f830184610587565b92915050565b6105b88161057e565b81146105c2575f80fd5b50565b5f813590506105d3816105af565b92915050565b5f80604083850312156105ef576105ee610525565b5b5f6105fc8582860161053f565b925050602061060d858286016105c5565b9150509250929050565b5f6020828403121561062c5761062b610525565b5b5f610639848285016105c5565b91505092915050565b5f82825260208201905092915050565b7f4f6e6c79206d696e7465722063616e206d696e7420746f6b656e7300000000005f82015250565b5f610686601b83610642565b915061069182610652565b602082019050919050565b5f6020820190508181035f8301526106b38161067a565b9050919050565b7f4e487b71000000000000000000000000000000000000000000000000000000005f52601160045260245ffd5b5f6106f18261057e565b91506106fc8361057e565b9250828201905080821115610714576107136106ba565b5b92915050565b7f416d6f756e7420746f206275726e206d757374206265206772656174657220745f8201527f68616e207a65726f000000000000000000000000000000000000000000000000602082015250565b5f610774602883610642565b915061077f8261071a565b604082019050919050565b5f6020820190508181035f8301526107a181610768565b9050919050565b7f496e73756666696369656e742062616c616e636520746f206275726e20746f6b5f8201527f656e730000000000000000000000000000000000000000000000000000000000602082015250565b5f610802602383610642565b915061080d826107a8565b604082019050919050565b5f6020820190508181035f83015261082f816107f6565b9050919050565b5f6108408261057e565b915061084b8361057e565b9250828203905081811115610863576108626106ba565b5b92915050565b5f60408201905061087c5f8301856104fd565b6108896020830184610587565b9392505050565b7f496e73756666696369656e742062616c616e63650000000000000000000000005f82015250565b5f6108c4601483610642565b91506108cf82610890565b602082019050919050565b5f6020820190508181035f8301526108f1816108b8565b9050919050565b5f60608201905061090b5f8301866104fd565b61091860208301856104fd565b6109256040830184610587565b94935050505056fea264697066735822122064572dfacce894ccc43afd234426fb1de5c841f4c9553a5ad2d298d79666f23264736f6c634300081a0033",
					"opcodes": "PUSH1 0x80 PUSH1 0x40 MSTORE CALLVALUE DUP1 ISZERO PUSH1 0xE JUMPI PUSH0 DUP1 REVERT JUMPDEST POP CALLER PUSH0 DUP1 PUSH2 0x100 EXP DUP2 SLOAD DUP2 PUSH20 0xFFFFFFFFFFFFFFFFFFFFFFFFFFFFFFFFFFFFFFFF MUL NOT AND SWAP1 DUP4 PUSH20 0xFFFFFFFFFFFFFFFFFFFFFFFFFFFFFFFFFFFFFFFF AND MUL OR SWAP1 SSTORE POP PUSH2 0x963 DUP1 PUSH2 0x5B PUSH0 CODECOPY PUSH0 RETURN INVALID PUSH1 0x80 PUSH1 0x40 MSTORE CALLVALUE DUP1 ISZERO PUSH2 0xF JUMPI PUSH0 DUP1 REVERT JUMPDEST POP PUSH1 0x4 CALLDATASIZE LT PUSH2 0x55 JUMPI PUSH0 CALLDATALOAD PUSH1 0xE0 SHR DUP1 PUSH4 0x7546172 EQ PUSH2 0x59 JUMPI DUP1 PUSH4 0x27E235E3 EQ PUSH2 0x77 JUMPI DUP1 PUSH4 0x40C10F19 EQ PUSH2 0xA7 JUMPI DUP1 PUSH4 0x42966C68 EQ PUSH2 0xC3 JUMPI DUP1 PUSH4 0xA9059CBB EQ PUSH2 0xDF JUMPI JUMPDEST PUSH0 DUP1 REVERT JUMPDEST PUSH2 0x61 PUSH2 0xFB JUMP JUMPDEST PUSH1 0x40 MLOAD PUSH2 0x6E SWAP2 SWAP1 PUSH2 0x50C JUMP JUMPDEST PUSH1 0x40 MLOAD DUP1 SWAP2 SUB SWAP1 RETURN JUMPDEST PUSH2 0x91 PUSH1 0x4 DUP1 CALLDATASIZE SUB DUP2 ADD SWAP1 PUSH2 0x8C SWAP2 SWAP1 PUSH2 0x553 JUMP JUMPDEST PUSH2 0x11E JUMP JUMPDEST PUSH1 0x40 MLOAD PUSH2 0x9E SWAP2 SWAP1 PUSH2 0x596 JUMP JUMPDEST PUSH1 0x40 MLOAD DUP1 SWAP2 SUB SWAP1 RETURN JUMPDEST PUSH2 0xC1 PUSH1 0x4 DUP1 CALLDATASIZE SUB DUP2 ADD SWAP1 PUSH2 0xBC SWAP2 SWAP1 PUSH2 0x5D9 JUMP JUMPDEST PUSH2 0x133 JUMP JUMPDEST STOP JUMPDEST PUSH2 0xDD PUSH1 0x4 DUP1 CALLDATASIZE SUB DUP2 ADD SWAP1 PUSH2 0xD8 SWAP2 SWAP1 PUSH2 0x617 JUMP JUMPDEST PUSH2 0x217 JUMP JUMPDEST STOP JUMPDEST PUSH2 0xF9 PUSH1 0x4 DUP1 CALLDATASIZE SUB DUP2 ADD SWAP1 PUSH2 0xF4 SWAP2 SWAP1 PUSH2 0x5D9 JUMP JUMPDEST PUSH2 0x368 JUMP JUMPDEST STOP JUMPDEST PUSH0 DUP1 SLOAD SWAP1 PUSH2 0x100 EXP SWAP1 DIV PUSH20 0xFFFFFFFFFFFFFFFFFFFFFFFFFFFFFFFFFFFFFFFF AND DUP2 JUMP JUMPDEST PUSH1 0x1 PUSH1 0x20 MSTORE DUP1 PUSH0 MSTORE PUSH1 0x40 PUSH0 KECCAK256 PUSH0 SWAP2 POP SWAP1 POP SLOAD DUP2 JUMP JUMPDEST PUSH0 DUP1 SLOAD SWAP1 PUSH2 0x100 EXP SWAP1 DIV PUSH20 0xFFFFFFFFFFFFFFFFFFFFFFFFFFFFFFFFFFFFFFFF AND PUSH20 0xFFFFFFFFFFFFFFFFFFFFFFFFFFFFFFFFFFFFFFFF AND CALLER PUSH20 0xFFFFFFFFFFFFFFFFFFFFFFFFFFFFFFFFFFFFFFFF AND EQ PUSH2 0x1C0 JUMPI PUSH1 0x40 MLOAD PUSH32 0x8C379A000000000000000000000000000000000000000000000000000000000 DUP2 MSTORE PUSH1 0x4 ADD PUSH2 0x1B7 SWAP1 PUSH2 0x69C JUMP JUMPDEST PUSH1 0x40 MLOAD DUP1 SWAP2 SUB SWAP1 REVERT JUMPDEST DUP1 PUSH1 0x1 PUSH0 DUP5 PUSH20 0xFFFFFFFFFFFFFFFFFFFFFFFFFFFFFFFFFFFFFFFF AND PUSH20 0xFFFFFFFFFFFFFFFFFFFFFFFFFFFFFFFFFFFFFFFF AND DUP2 MSTORE PUSH1 0x20 ADD SWAP1 DUP2 MSTORE PUSH1 0x20 ADD PUSH0 KECCAK256 PUSH0 DUP3 DUP3 SLOAD PUSH2 0x20C SWAP2 SWAP1 PUSH2 0x6E7 JUMP JUMPDEST SWAP3 POP POP DUP2 SWAP1 SSTORE POP POP POP JUMP JUMPDEST PUSH0 DUP2 GT PUSH2 0x259 JUMPI PUSH1 0x40 MLOAD PUSH32 0x8C379A000000000000000000000000000000000000000000000000000000000 DUP2 MSTORE PUSH1 0x4 ADD PUSH2 0x250 SWAP1 PUSH2 0x78A JUMP JUMPDEST PUSH1 0x40 MLOAD DUP1 SWAP2 SUB SWAP1 REVERT JUMPDEST DUP1 PUSH1 0x1 PUSH0 CALLER PUSH20 0xFFFFFFFFFFFFFFFFFFFFFFFFFFFFFFFFFFFFFFFF AND PUSH20 0xFFFFFFFFFFFFFFFFFFFFFFFFFFFFFFFFFFFFFFFF AND DUP2 MSTORE PUSH1 0x20 ADD SWAP1 DUP2 MSTORE PUSH1 0x20 ADD PUSH0 KECCAK256 SLOAD LT ISZERO PUSH2 0x2D9 JUMPI PUSH1 0x40 MLOAD PUSH32 0x8C379A000000000000000000000000000000000000000000000000000000000 DUP2 MSTORE PUSH1 0x4 ADD PUSH2 0x2D0 SWAP1 PUSH2 0x818 JUMP JUMPDEST PUSH1 0x40 MLOAD DUP1 SWAP2 SUB SWAP1 REVERT JUMPDEST DUP1 PUSH1 0x1 PUSH0 CALLER PUSH20 0xFFFFFFFFFFFFFFFFFFFFFFFFFFFFFFFFFFFFFFFF AND PUSH20 0xFFFFFFFFFFFFFFFFFFFFFFFFFFFFFFFFFFFFFFFF AND DUP2 MSTORE PUSH1 0x20 ADD SWAP1 DUP2 MSTORE PUSH1 0x20 ADD PUSH0 KECCAK256 PUSH0 DUP3 DUP3 SLOAD PUSH2 0x325 SWAP2 SWAP1 PUSH2 0x836 JUMP JUMPDEST SWAP3 POP POP DUP2 SWAP1 SSTORE POP PUSH32 0x696DE425F79F4A40BC6D2122CA50507F0EFBEABBFF86A84871B7196AB8EA8DF7 CALLER DUP3 PUSH1 0x40 MLOAD PUSH2 0x35D SWAP3 SWAP2 SWAP1 PUSH2 0x869 JUMP JUMPDEST PUSH1 0x40 MLOAD DUP1 SWAP2 SUB SWAP1 LOG1 POP JUMP JUMPDEST DUP1 PUSH1 0x1 PUSH0 CALLER PUSH20 0xFFFFFFFFFFFFFFFFFFFFFFFFFFFFFFFFFFFFFFFF AND PUSH20 0xFFFFFFFFFFFFFFFFFFFFFFFFFFFFFFFFFFFFFFFF AND DUP2 MSTORE PUSH1 0x20 ADD SWAP1 DUP2 MSTORE PUSH1 0x20 ADD PUSH0 KECCAK256 SLOAD LT ISZERO PUSH2 0x3E8 JUMPI PUSH1 0x40 MLOAD PUSH32 0x8C379A000000000000000000000000000000000000000000000000000000000 DUP2 MSTORE PUSH1 0x4 ADD PUSH2 0x3DF SWAP1 PUSH2 0x8DA JUMP JUMPDEST PUSH1 0x40 MLOAD DUP1 SWAP2 SUB SWAP1 REVERT JUMPDEST DUP1 PUSH1 0x1 PUSH0 CALLER PUSH20 0xFFFFFFFFFFFFFFFFFFFFFFFFFFFFFFFFFFFFFFFF AND PUSH20 0xFFFFFFFFFFFFFFFFFFFFFFFFFFFFFFFFFFFFFFFF AND DUP2 MSTORE PUSH1 0x20 ADD SWAP1 DUP2 MSTORE PUSH1 0x20 ADD PUSH0 KECCAK256 PUSH0 DUP3 DUP3 SLOAD PUSH2 0x434 SWAP2 SWAP1 PUSH2 0x836 JUMP JUMPDEST SWAP3 POP POP DUP2 SWAP1 SSTORE POP DUP1 PUSH1 0x1 PUSH0 DUP5 PUSH20 0xFFFFFFFFFFFFFFFFFFFFFFFFFFFFFFFFFFFFFFFF AND PUSH20 0xFFFFFFFFFFFFFFFFFFFFFFFFFFFFFFFFFFFFFFFF AND DUP2 MSTORE PUSH1 0x20 ADD SWAP1 DUP2 MSTORE PUSH1 0x20 ADD PUSH0 KECCAK256 PUSH0 DUP3 DUP3 SLOAD PUSH2 0x487 SWAP2 SWAP1 PUSH2 0x6E7 JUMP JUMPDEST SWAP3 POP POP DUP2 SWAP1 SSTORE POP PUSH32 0x3990DB2D31862302A685E8086B5755072A6E2B5B780AF1EE81ECE35EE3CD3345 CALLER DUP4 DUP4 PUSH1 0x40 MLOAD PUSH2 0x4C1 SWAP4 SWAP3 SWAP2 SWAP1 PUSH2 0x8F8 JUMP JUMPDEST PUSH1 0x40 MLOAD DUP1 SWAP2 SUB SWAP1 LOG1 POP POP JUMP JUMPDEST PUSH0 PUSH20 0xFFFFFFFFFFFFFFFFFFFFFFFFFFFFFFFFFFFFFFFF DUP3 AND SWAP1 POP SWAP2 SWAP1 POP JUMP JUMPDEST PUSH0 PUSH2 0x4F6 DUP3 PUSH2 0x4CD JUMP JUMPDEST SWAP1 POP SWAP2 SWAP1 POP JUMP JUMPDEST PUSH2 0x506 DUP2 PUSH2 0x4EC JUMP JUMPDEST DUP3 MSTORE POP POP JUMP JUMPDEST PUSH0 PUSH1 0x20 DUP3 ADD SWAP1 POP PUSH2 0x51F PUSH0 DUP4 ADD DUP5 PUSH2 0x4FD JUMP JUMPDEST SWAP3 SWAP2 POP POP JUMP JUMPDEST PUSH0 DUP1 REVERT JUMPDEST PUSH2 0x532 DUP2 PUSH2 0x4EC JUMP JUMPDEST DUP2 EQ PUSH2 0x53C JUMPI PUSH0 DUP1 REVERT JUMPDEST POP JUMP JUMPDEST PUSH0 DUP2 CALLDATALOAD SWAP1 POP PUSH2 0x54D DUP2 PUSH2 0x529 JUMP JUMPDEST SWAP3 SWAP2 POP POP JUMP JUMPDEST PUSH0 PUSH1 0x20 DUP3 DUP5 SUB SLT ISZERO PUSH2 0x568 JUMPI PUSH2 0x567 PUSH2 0x525 JUMP JUMPDEST JUMPDEST PUSH0 PUSH2 0x575 DUP5 DUP3 DUP6 ADD PUSH2 0x53F JUMP JUMPDEST SWAP2 POP POP SWAP3 SWAP2 POP POP JUMP JUMPDEST PUSH0 DUP2 SWAP1 POP SWAP2 SWAP1 POP JUMP JUMPDEST PUSH2 0x590 DUP2 PUSH2 0x57E JUMP JUMPDEST DUP3 MSTORE POP POP JUMP JUMPDEST PUSH0 PUSH1 0x20 DUP3 ADD SWAP1 POP PUSH2 0x5A9 PUSH0 DUP4 ADD DUP5 PUSH2 0x587 JUMP JUMPDEST SWAP3 SWAP2 POP POP JUMP JUMPDEST PUSH2 0x5B8 DUP2 PUSH2 0x57E JUMP JUMPDEST DUP2 EQ PUSH2 0x5C2 JUMPI PUSH0 DUP1 REVERT JUMPDEST POP JUMP JUMPDEST PUSH0 DUP2 CALLDATALOAD SWAP1 POP PUSH2 0x5D3 DUP2 PUSH2 0x5AF JUMP JUMPDEST SWAP3 SWAP2 POP POP JUMP JUMPDEST PUSH0 DUP1 PUSH1 0x40 DUP4 DUP6 SUB SLT ISZERO PUSH2 0x5EF JUMPI PUSH2 0x5EE PUSH2 0x525 JUMP JUMPDEST JUMPDEST PUSH0 PUSH2 0x5FC DUP6 DUP3 DUP7 ADD PUSH2 0x53F JUMP JUMPDEST SWAP3 POP POP PUSH1 0x20 PUSH2 0x60D DUP6 DUP3 DUP7 ADD PUSH2 0x5C5 JUMP JUMPDEST SWAP2 POP POP SWAP3 POP SWAP3 SWAP1 POP JUMP JUMPDEST PUSH0 PUSH1 0x20 DUP3 DUP5 SUB SLT ISZERO PUSH2 0x62C JUMPI PUSH2 0x62B PUSH2 0x525 JUMP JUMPDEST JUMPDEST PUSH0 PUSH2 0x639 DUP5 DUP3 DUP6 ADD PUSH2 0x5C5 JUMP JUMPDEST SWAP2 POP POP SWAP3 SWAP2 POP POP JUMP JUMPDEST PUSH0 DUP3 DUP3 MSTORE PUSH1 0x20 DUP3 ADD SWAP1 POP SWAP3 SWAP2 POP POP JUMP JUMPDEST PUSH32 0x4F6E6C79206D696E7465722063616E206D696E7420746F6B656E730000000000 PUSH0 DUP3 ADD MSTORE POP JUMP JUMPDEST PUSH0 PUSH2 0x686 PUSH1 0x1B DUP4 PUSH2 0x642 JUMP JUMPDEST SWAP2 POP PUSH2 0x691 DUP3 PUSH2 0x652 JUMP JUMPDEST PUSH1 0x20 DUP3 ADD SWAP1 POP SWAP2 SWAP1 POP JUMP JUMPDEST PUSH0 PUSH1 0x20 DUP3 ADD SWAP1 POP DUP2 DUP2 SUB PUSH0 DUP4 ADD MSTORE PUSH2 0x6B3 DUP2 PUSH2 0x67A JUMP JUMPDEST SWAP1 POP SWAP2 SWAP1 POP JUMP JUMPDEST PUSH32 0x4E487B7100000000000000000000000000000000000000000000000000000000 PUSH0 MSTORE PUSH1 0x11 PUSH1 0x4 MSTORE PUSH1 0x24 PUSH0 REVERT JUMPDEST PUSH0 PUSH2 0x6F1 DUP3 PUSH2 0x57E JUMP JUMPDEST SWAP2 POP PUSH2 0x6FC DUP4 PUSH2 0x57E JUMP JUMPDEST SWAP3 POP DUP3 DUP3 ADD SWAP1 POP DUP1 DUP3 GT ISZERO PUSH2 0x714 JUMPI PUSH2 0x713 PUSH2 0x6BA JUMP JUMPDEST JUMPDEST SWAP3 SWAP2 POP POP JUMP JUMPDEST PUSH32 0x416D6F756E7420746F206275726E206D75737420626520677265617465722074 PUSH0 DUP3 ADD MSTORE PUSH32 0x68616E207A65726F000000000000000000000000000000000000000000000000 PUSH1 0x20 DUP3 ADD MSTORE POP JUMP JUMPDEST PUSH0 PUSH2 0x774 PUSH1 0x28 DUP4 PUSH2 0x642 JUMP JUMPDEST SWAP2 POP PUSH2 0x77F DUP3 PUSH2 0x71A JUMP JUMPDEST PUSH1 0x40 DUP3 ADD SWAP1 POP SWAP2 SWAP1 POP JUMP JUMPDEST PUSH0 PUSH1 0x20 DUP3 ADD SWAP1 POP DUP2 DUP2 SUB PUSH0 DUP4 ADD MSTORE PUSH2 0x7A1 DUP2 PUSH2 0x768 JUMP JUMPDEST SWAP1 POP SWAP2 SWAP1 POP JUMP JUMPDEST PUSH32 0x496E73756666696369656E742062616C616E636520746F206275726E20746F6B PUSH0 DUP3 ADD MSTORE PUSH32 0x656E730000000000000000000000000000000000000000000000000000000000 PUSH1 0x20 DUP3 ADD MSTORE POP JUMP JUMPDEST PUSH0 PUSH2 0x802 PUSH1 0x23 DUP4 PUSH2 0x642 JUMP JUMPDEST SWAP2 POP PUSH2 0x80D DUP3 PUSH2 0x7A8 JUMP JUMPDEST PUSH1 0x40 DUP3 ADD SWAP1 POP SWAP2 SWAP1 POP JUMP JUMPDEST PUSH0 PUSH1 0x20 DUP3 ADD SWAP1 POP DUP2 DUP2 SUB PUSH0 DUP4 ADD MSTORE PUSH2 0x82F DUP2 PUSH2 0x7F6 JUMP JUMPDEST SWAP1 POP SWAP2 SWAP1 POP JUMP JUMPDEST PUSH0 PUSH2 0x840 DUP3 PUSH2 0x57E JUMP JUMPDEST SWAP2 POP PUSH2 0x84B DUP4 PUSH2 0x57E JUMP JUMPDEST SWAP3 POP DUP3 DUP3 SUB SWAP1 POP DUP2 DUP2 GT ISZERO PUSH2 0x863 JUMPI PUSH2 0x862 PUSH2 0x6BA JUMP JUMPDEST JUMPDEST SWAP3 SWAP2 POP POP JUMP JUMPDEST PUSH0 PUSH1 0x40 DUP3 ADD SWAP1 POP PUSH2 0x87C PUSH0 DUP4 ADD DUP6 PUSH2 0x4FD JUMP JUMPDEST PUSH2 0x889 PUSH1 0x20 DUP4 ADD DUP5 PUSH2 0x587 JUMP JUMPDEST SWAP4 SWAP3 POP POP POP JUMP JUMPDEST PUSH32 0x496E73756666696369656E742062616C616E6365000000000000000000000000 PUSH0 DUP3 ADD MSTORE POP JUMP JUMPDEST PUSH0 PUSH2 0x8C4 PUSH1 0x14 DUP4 PUSH2 0x642 JUMP JUMPDEST SWAP2 POP PUSH2 0x8CF DUP3 PUSH2 0x890 JUMP JUMPDEST PUSH1 0x20 DUP3 ADD SWAP1 POP SWAP2 SWAP1 POP JUMP JUMPDEST PUSH0 PUSH1 0x20 DUP3 ADD SWAP1 POP DUP2 DUP2 SUB PUSH0 DUP4 ADD MSTORE PUSH2 0x8F1 DUP2 PUSH2 0x8B8 JUMP JUMPDEST SWAP1 POP SWAP2 SWAP1 POP JUMP JUMPDEST PUSH0 PUSH1 0x60 DUP3 ADD SWAP1 POP PUSH2 0x90B PUSH0 DUP4 ADD DUP7 PUSH2 0x4FD JUMP JUMPDEST PUSH2 0x918 PUSH1 0x20 DUP4 ADD DUP6 PUSH2 0x4FD JUMP JUMPDEST PUSH2 0x925 PUSH1 0x40 DUP4 ADD DUP5 PUSH2 0x587 JUMP JUMPDEST SWAP5 SWAP4 POP POP POP POP JUMP INVALID LOG2 PUSH5 0x6970667358 0x22 SLT KECCAK256 PUSH5 0x572DFACCE8 SWAP5 0xCC 0xC4 GASPRICE REVERT 0x23 PREVRANDAO 0x26 0xFB SAR 0xE5 0xC8 COINBASE DELEGATECALL 0xC9 SSTORE GASPRICE GAS 0xD2 0xD2 SWAP9 0xD7 SWAP7 PUSH7 0xF23264736F6C63 NUMBER STOP ADDMOD BYTE STOP CALLER "
				},
				"gasEstimates": {
					"creation": {
						"codeDepositCost": "480600",
						"executionCost": "24781",
						"totalCost": "505381"
					},
					"external": {
						"balances(address)": "2802",
						"burn(uint256)": "infinite",
						"mint(address,uint256)": "infinite",
						"minter()": "2483",
						"transfer(address,uint256)": "infinite"
					}
				},
				"methodIdentifiers": {
					"balances(address)": "27e235e3",
					"burn(uint256)": "42966c68",
					"mint(address,uint256)": "40c10f19",
					"minter()": "07546172",
					"transfer(address,uint256)": "a9059cbb"
				}
			},
			"storageLayout": {
				"storage": [
					{
						"astId": 3,
						"contract": "contracts/Coin.sol:Coin",
						"label": "minter",
						"offset": 0,
						"slot": "0",
						"type": "t_address"
					},
					{
						"astId": 7,
						"contract": "contracts/Coin.sol:Coin",
						"label": "balances",
						"offset": 0,
						"slot": "1",
						"type": "t_mapping(t_address,t_uint256)"
					}
				],
				"types": {
					"t_address": {
						"encoding": "inplace",
						"label": "address",
						"numberOfBytes": "20"
					},
					"t_mapping(t_address,t_uint256)": {
						"encoding": "mapping",
						"key": "t_address",
						"label": "mapping(address => uint256)",
						"numberOfBytes": "32",
						"value": "t_uint256"
					},
					"t_uint256": {
						"encoding": "inplace",
						"label": "uint256",
						"numberOfBytes": "32"
					}
				}
			},
			"userdoc": {
				"kind": "user",
				"methods": {},
				"version": 1
			}
		}
	}
}